:020000022000DC
:1070000080710020E9900300D1010500D5900300B4
:10701000D5900300D5900300D59003000000000038
:10702000000000000000000000000000C591030007
:10703000D590030000000000D5940300D590030014
:1070400089950300FB3605008995030089950300A7
:1070500089950300899503008995030089950300AC
:10706000113705008995030089950300273705002E
:10707000899503008995030089950300899503008C
:10708000899503008995030089950300899503007C
:10709000899503008995030089950300899503006C
:1070A000899503008995030089950300899503005C
:1070B000899503008995030089950300899503004C
:1070C000899503008995030089950300899503003C
:1070D000899503008995030089950300899503002C
:1070E000899503008995030089950300899503001C
:1070F000899503008995030089950300899503000C
:10710000064B074A5B7802604FF426728280C37197
:107110000822002382710372704700BFF80C002020
:10712000D3360300064B074A5B7A02604FF49C7229
:107130008280C3710822FF2382710372704700BFEF
:10714000F80C002001320300F8B5C41D002824F01B
:107150000704054614BF2046002000F053FA071E1E
:1071600002DA6FF00B00F8BD254EB1887088F37914
:10717000B2790331033089B280B209F0DEFF002812
:10718000EFDB737831783C4403341944002D24F04C
:10719000030400FB01F114BF2046002000F0B8FBFF
:1071A00023180DB9002BDCDB717A184679B1033353
:1071B000002D23F0030414BF20460020728900F044
:1071C00019FC0028CDDB20440DB90028C9DB317A39
:1071D00091B1737A83B1C41D002D24F0070414BF4C
:1071E0002046002002F034FF0028BADB0DB1002059
:1071F000B9E72018B7D5B4E7002DF8D1B3E700BF41
:10720000F80C00201FB572B6194BDD68EDB9BFF35D
:107210004F8F1849184BCA6802F4E0621343CB60E1
:10722000BFF34F8F00BFFDE72346B2FBF6F25C1CB5
:10723000002AF9D104AEDCB256FA83F303F80C2C21
:107240000A2234B901A8A847E1E7024600230A262A
:10725000EDE7631E04AEDCB256FA83F3B0FBF2F640
:1072600002FB1600303003F80C0C3046E9E700BF93
:10727000F80C002000ED00E00400FA0507B50A4B09
:10728000DA88ADF8002068469A885B88ADF804205B
:10729000ADF8023001F0FAFC18B1FA219C20FFF79A
:1072A000B1FF03B05DF804FBF80C002010B50446F4
:1072B00028B308F09FFE10B94FF0FF3010BD06F064
:1072C0003FFEB0F5FA7FF7D80E4B00221A744FF448
:1072D00080721A801B225A809A8040F20322DA8040
:1072E0004FF484721A811F22DC605A81EFF31084FC
:1072F00072B600F0DDFB04B962B60020DEE76FF085
:107300001500DBE7F80C002010B5002840D1234C15
:10731000237C032B39D059B1002A3CD002390529EE
:1073200036D8DFE801F0031227352A2D1378637071
:107330000020FFF709FF0028B7BF012302232374B1
:107340006FF00B00A8BF237410BD13791BB35379E2
:107350000BB31188FB291ED853881B3B9BB2E02B33
:1073600019D81A2917D91368C4F802300C4B92881F
:107370009A80DDE713786372DAE713886381D7E7D1
:107380001388FF2B07D82372D2E74FF0FF30DBE7DB
:107390006FF02C00D8E76FF01500D5E7F80C00204F
:1073A000FA0C0020F8B50D46064620B319B311F0CB
:1073B000070420D1114F3B7C012B02D16FF00B0051
:1073C000F8BD032B02D14FF0FF30F9E700F0ACFB22
:1073D0000028F8D02846FFF7B7FE0028EEDB0CF0B7
:1073E000CFF93046214601F0D3FCFFF747FF0323D6
:1073F0003B742046E4E76FF01500E1E7F80C00204D
:1074000010B5064C237C032B03D101F0D7FC02F00E
:10741000C3F809F09CFF0020207410BDF80C002078
:1074200008B501F081FCBDE808400249012000F0E8
:10743000E1B800BF2571020008B501F089FCBDE884
:1074400008400249002000F0D5B800BF01710200D9
:10745000074B4FF0FF3141F6FF72C3E900120549B7
:107460000022C1E900221F21C3E90212704700BFB8
:10747000000000200C0D00203F280CD801380B4BD9
:10748000C0F3421200F01F0053F8223023FA00F03C
:1074900000F001007047FF2806D04038C0F34212C8
:1074A000034B00F01F00EFE70120704700000020B1
:1074B0000C0D00200146074B006849681A4603C2BC
:1074C00040F48C221A6041F0107242F4FF625A605C
:1074D00000207047000000200246034B00685168FE
:1074E00003C30020704700BF0C0D00200246034B71
:1074F0000068516803C30020704700BF08000020E7
:107500000138064BC0F3421203EB820300F01F0068
:107510009B6823FA00F000F0010070470000002093
:10752000F0B50C88C37C0288A5B2C4F30E0404F144
:1075300018060233865B1A44334497B213FA82F377
:10754000013B4288B3FBF7F313FB07439BB29A421C
:10755000044A93BF22EA05032A4013439BB20B80DF
:10756000F0BD00BF0080FFFF4A1E062A08B5034693
:10757000084604D84FF4D1711520FFF743FE094A9D
:10758000914202D940F2A311F6E711B903B1196093
:1075900008BD2BB11B680022C3E901211A1D1A6026
:1075A0000430F5E7FAFFFF7F10B5114B00EB410403
:1075B0001A786389B3FBF2F303FB0223013A1A44FE
:1075C000B2F5706F0279807828BF00231A440B1837
:1075D000B2FBF0F100FB11215B1AB3FBF0F100FBF1
:1075E000113313446FEA43436FEA5343638110BD81
:1075F000140D0020024B03EB80035960704700BF5D
:10760000140D00202DE9F04F10F0070A85B0054653
:1076100004D040F26F111720FFF7F4FD534F07F12C
:107620000C06B1460446B04657F8043B8DF80BA053
:107630003BB101A898479DF80A30082B01D9F521E4
:10764000E9E79DF80B1041BB05B131604F4506F1EC
:107650000406E9D1002D70D0DFF81491002289F8DA
:1076600000209646022758F827A0013FBAF1000FE4
:1076700056D09AF804609AF802C0FF2E61D03946BD
:107680000023481C39D19C44BCF1FF0F40D90AB1FA
:1076900089F800E04FF49A71BDE79DF80AC0604692
:1076A000022838BF02204B1D5A0004EB4303441E3E
:1076B0002344BDF808406444013CCCF1000C04EACA
:1076C0000C044042B4F5803F03EA000302D340F2C9
:1076D0000511A0E775B19A1A0120326091701480EB
:1076E000D0709DF80C001071019810814FEA104C79
:1076F000A2F806C004FB0134A8E758F8210028B11D
:1077000090F804B0B34504BF80781B180139B8E77E
:10771000DBB2E6458AF804303CBF5FFA8CFE0122FA
:107720007B1CA0D10AB189F800E0022640F6FF6A6E
:1077300058F82670B7B9013EFAD2601B05B0BDE813
:10774000F08F0023E5E707EB41033846A3F80AA0D2
:10775000FFF72AFF09F10109BB785FFA89F18B4233
:10776000F1D8E8E74FF00009F6E700BF180D002058
:10777000140D002038B54FF6FF730380184B03EB50
:10778000810302461869A8B184780379B3FBF4F148
:1077900004FB1133DBB2194600EB4105B5F90A5081
:1077A000002D0EDB0131B1FBF4F504FB1511C9B25C
:1077B0008B42F1D1002038BD6381BDE8384009F02B
:1077C00098BC00EB41046389C3F30E031380C278B5
:1077D000002AF1D14FF4E5711720FFF713FD00BF28
:1077E000140D00201C4B03EB810370B51C6905468A
:1077F00044B3030404D54FF4EC711720FFF702FDE6
:107800000146204609F057FCFF28014604D02046D7
:10781000BDE8704009F06DBCA078B5FBF0F300FB4B
:107820001353DBB219460A1D04EB4206B6F9026097
:10783000002E09DB0131B1FBF0F200FB1211C9B2DD
:107840008B42F0D1002070BD8B4201D00023E37049
:1078500004EB42025580DAE7140D0020094B03EBDC
:10786000810310B51C690146204609F024FCFF285D
:10787000014604D02046BDE8104009F03ABC002083
:1078800010BD00BF140D0020F8B5104B03EB8103B1
:1078900007461C690146204609F00DFCFF280546F5
:1078A00011D0E288238953EA024606D001462046D9
:1078B00009F01FFC01463846B04720462946FFF72D
:1078C00073FE0020F8BD0520FCE700BF140D00206A
:1078D00038B50E4B827903EB82030446186908B968
:1078E000052038BD8278E1799142F9D24B1CE371D1
:1078F00000EB41035D89B3F90A30002BF3DBA5806F
:1079000009F0F7FB20600020EBE700BF140D00201A
:1079100070B5044610F003000E4603D04E21182027
:10792000FFF770FCFFF720FE054624B103483146FF
:107930000460FFF719FE284670BD00BF300D00201F
:107940002DE9F14FDFF870B09DF828A09DF82C903C
:107950001E46DBF8003007460D4690461BB96021F5
:107960001820FFF74FFC52460921404609F028FA3B
:107970004A4684B20921304609F022FA14FA80F10D
:10798000DBF8000009F06BFB386018B9286001B023
:10799000BDE8F08F04442C60386853464146092204
:1079A00009F0D1F928684B460922314601B0BDE8FB
:1079B000F04F09F0C8B900BF300D002070B50E4679
:1079C000044609F010FA0546304609F00CFA044B5B
:1079D0002A1821461868BDE8704009F065BB00BF51
:1079E000300D0020024B186808B109F02CBB70471D
:1079F000300D00201F2AF8B5044626D804200323A2
:107A0000134D12FB003254B1A30703D068210920A3
:107A1000FFF7F8FB22F0030329706C602B8122F042
:107A200003022823120403FB01F001276B68120CE8
:107A30000025EEB2B14200D8F8BD14B126181F706F
:107A40005E60104401352833F3E74FF0FF30F3E771
:107A5000340D002070B5154A157853680021C8B25E
:107A6000854203D8BA210920FFF7CCFB1C461846F3
:107A700014F8286B01310EB92346F0E70021997004
:107A8000128999610124D96159685C70920803F1E7
:107A90001E0403F1260524F8022FAC4243F8041F0C
:107AA0001144F8D100234361037070BD340D0020F0
:107AB000134B012200214FF0FF309A60C3F80012EF
:107AC000C3F80803C3F80015C3F804259A60C3F887
:107AD0000803C3F80015C3F804250A490A4A03F548
:107AE00080334FF40040C3F80825C1F88000BFF38D
:107AF0004F8FBFF36F8FC1F88001C3F8082570471F
:107B000000F0004000E100E00000F63F024B026898
:107B10001A600020704700BF400D0020014B1B6819
:107B2000184700BF400D0020024B1868003818BFEE
:107B300001207047400D00200A468F2302F8033BC6
:107B40000448C368C1F80330036953604369936014
:107B5000704700BF440D0020024B5A8C02435A84E8
:107B60005B6A1847440D0020014B00215B6A1847EF
:107B7000440D002010B5154C05F034FA05F030FC2A
:107B8000208DFFF7F1FF237E63B12246104952F8A2
:107B90000C3BE3606368536004F11900A3689360D1
:107BA0000AF070FC218DE06A02F086FAE36AB3F80D
:107BB000AA0002F003FA636B94F8301094F83100D5
:107BC0009847002384F8383010BD00BF440D0020D2
:107BD000397B0200034B93F838300BB1FFF7CABF73
:107BE000704700BF440D002070B5184CE66AE36C86
:107BF000E3634FF481730546A4F8403094F85000D5
:107C0000337D96F8151100EB83002DB9FF2803D1C1
:107C100096F814318B4201D004F05CFF337D73B1D0
:107C2000606D05F035F9616DE06B05F0B5FB15B9D8
:107C3000284605F081F9022384F8383070BDE06BE6
:107C400005F026F905F0CCFBF1E700BF440D00205C
:107C5000F0B590F86D40134A0B46012CD1E91E6730
:107C600092F8502087B001F1800103F190034FF0AA
:107C7000010006D0022C13D040F225410620FFF768
:107C8000C1FA00240025CDE9013205900090CDE92C
:107C9000034532463B46012005F0DCFA07B0F0BD53
:107CA0000446EFE7440D002008B5094B93F838204F
:107CB000022A04D040F257312720FFF7A3FADA7ADC
:107CC00042F00102DA72BDE80840FFF753BF00BF7F
:107CD000440D002070B50F4DAE6D3478C90001F031
:107CE000080104F0F30492000C4302F00402144370
:107CF0001B0103F0100304F0EC041C4300F003002C
:107D000004433470B5F8643073700223A5F85C3016
:107D100070BD00BF440D0020F7B5184CA56E064697
:107D20000DB1636C23B940F6C4012720FFF76AFA4E
:107D3000B4F848306B702B782F4601F0030123F024
:107D400003030B4307F8033BB4F84820616C384643
:107D500008F0F6FB0DF1020201A9E06EE56367642D
:107D600009F067F9019809F052F9B4F84810306049
:107D70000122E06E09F0FAF803B0F0BD440D0020D6
:107D80002DE9F0412C4C94F83830012B06460F4673
:107D90005FFA83F804D040F60C112720FFF732FA7F
:107DA000E56A2B7933B1002129710420FFF7D4FE55
:107DB00085F805802B7A052B0AD120490220FFF790
:107DC000CBFE236E1B78991E4B424B4184F87030DA
:107DD0001EB1BDE8F041FFF7CDBE002FF9D0636FB3
:107DE000304698470028F4D094F83030002BF0D17A
:107DF000638C9A0716D594F87030002BE9D02B7D50
:107E0000E46A23B1294604F1A800FFF721FF94F8A2
:107E10001521012096210BF027FDBDE8F04100203F
:107E2000FFF7E2BE002BD4D194F87830002BE6D1D6
:107E300094F87930E1E700BF440D0020A40D002044
:107E40002DE9F04F964EF46A91B004F1A8030A931D
:107E50000023CDE90D3396F838300790022B0991B5
:107E60005FFA83FA04D040F6AD112720FFF7CAF974
:107E7000F36B03221D785978A6F8481013447364F5
:107E8000079BA6F8402005F00308002B00F0F480C3
:107E900019B1F06E09F04AF80146627A338DB16685
:107EA0000132D2B282EA950743F4007317F001075A
:107EB000338546D1237A23B3032B62720AD8012B70
:107EC0001FD0D6F880000DA908F0D9FF90B940F274
:107ED000D471CAE7053B012B02D940F2B371C4E764
:107EE00001F00EF810B940F2DE71BEE73946082005
:107EF000FFF732FED4E91C32013342F10002C4E93B
:107F00001C326379002121721BB161711020FFF7CF
:107F100023FE338D43F40063338500230893237DD0
:107F2000C5F3C007CBB1B6F84830B3B105F070FA6D
:107F30000328FBD0022806D1FFF71CFE11B0BDE8D4
:107F4000F08F079BEAE740B9A37A03F001039F4251
:107F500003D1012386F83130EEE7A27A02F0010363
:107F60009F4240D04FF0000BB36E002B40F0968044
:107F7000B6F84830B3FA83F35B0903EA151386F8C1
:107F80007930099B002B40F08F80728C96F88630F8
:107F9000110704D596F87020002A40F08580012B47
:107FA00000F28280736F0120984700287CD096F8F9
:107FB0003050002D78D1E37C002B00F0D78094F86E
:107FC0001461012ED4E91C2304F1800104F190070F
:107FD0004FF0010000F0BF80022E00F0F18040F26F
:107FE0002541062042E7B6F84830E3B108F1FF31F9
:107FF000012918D8318D41F48051318596F88410CB
:10800000994206D296F8303043F0100386F83030AB
:10801000A8E7B16E0029A5D096F8851019B12020E7
:10802000FFF7A2FD9EE70132B8F1030FA27219D04B
:1080300008F1FF32012A0BD8002B93D0D4E91E326D
:10804000013342F10002C4E91E32DDF81CB08BE7B7
:10805000002B87D0D4E91E32013342F10002C4E97B
:108060001E327FE7338D0F49012043F48053207186
:108070003385FFF771FDEDE7237D0BB105F004FAC1
:1080800096F88630013386F88630338D4FF0000B3A
:1080900043F480633385CDF820B065E701236CE7B6
:1080A000440D0020880D002004F09CFFBBF1000F60
:1080B0004CD101230993A54D2B8D5A0606D440209F
:1080C000FFF752FD2B8D43F040032B85089B63B1D6
:1080D000B5F80720B5F805301343E28813431EBFF7
:1080E000B5F809300133A5F80930079B002B00F0E3
:1080F0002681B5F805300133A5F80530002385F851
:108100008630934801F048FF0D9830B108F07FFFAA
:10811000002202720A9901F047FB0E9B33B1002244
:108120001A720C220A990E9801F00CFB099B002B85
:108130007FF402AF2B8D1B063FF500AF8020FFF7C9
:1081400013FD2B8D43F080032B85F7E641460EA8E7
:10815000FFF7E2FDADE72E4605900020CDE9036074
:10816000FB26CDE90176009005F074F8774F94F87E
:108170001421962100200BF077FBD7F82C9097F86C
:10818000503099F8142099F8141103EB8203FF2B57
:1081900003D199F815318B4202D0FF2004F09AFCEC
:1081A000FE6A00238DF83130ADF83230337A062B79
:1081B00000F2B280DFE803F0068E9191B0A3A30035
:1081C0000646C9E797F88730A6F804310DF1320169
:1081D0000FA8ADF8323000F085FE30B10F9820B115
:1081E00005233372BDF8323014E0FB6A93F8513046
:1081F000002B6AD1D7F880000DF131020DF1320168
:1082000008F018FE002860D0BDF83230002B4BD1AA
:1082100001223272B865A7F8643003B1C31C3B6613
:10822000B27A96F809A0367A0B92022E07D0053E54
:10823000012E74D81B78022B4FF003060CD0D7F810
:10824000800008F052FE00286BD1032E04D000F00D
:1082500063FE80F00105EDB23C4F05F0010387F8A5
:10826000783099F81330002B5DD0B7F86430002BCC
:1082700059D051460B9A2B463046FFF72BFD786DAF
:1082800004F006FED7E9150105F04CF8012387F844
:10829000883087F83830BBF1000F3FF40CAF41460F
:1082A0000EA8FFF739FD06E79DF831201AB90280C4
:1082B0008270032395E7027802F00302012A08BFC7
:1082C0004FF0030A86F808A0A4E70023ADF8323087
:1082D000012333721F4800239CE7B6F80431D7F816
:1082E0008000ADF832300DF131020DF1320108F0AD
:1082F000A1FD00287FF476AF40F2C351B5E50DF142
:1083000032010FA800F0EEFD08B10F9810B940F24D
:10831000D251AAE5062364E740F2DC51A5E5012627
:108320008DE7012598E70B9A2B4651463046FFF71B
:10833000D1FCB86D04F0ACFD05F052F8A6E7B5F835
:1083400007300133A5F80730DBE600BF440D0020FD
:10835000700D0020BE0D002010B5064B93F838209C
:1083600002F0FF0422B91C7601F09EFE204610BDEB
:108370000C24FBE7440D0020094B0A4A10B51A6093
:10838000FFF7EAFF20B14FF4B1712720FEF73AFF63
:1083900000F024FD044CE06400F024FD606510BD95
:1083A000A416002050850200440D0020F8B55C4C56
:1083B00094F83860054606F0FF0016B909B102B11D
:1083C00023B94FF420712720FEF71CFF63639DF84B
:1083D000183084F885306162626784F8300084F870
:1083E000860084F8310084F888006084208584F851
:1083F000780084F8790084F87000A0652066A4F8FD
:108400006400E0636064A4F84800E56204F0A4FB43
:1084100004F0E6FF95F91C0104F0E8FBD5F8D06004
:10842000D5F8C80004F0E8FB304604F023FD95F8C9
:10843000240004F0EBFBE36A93F891320BB104F0F3
:1084400079FB0AF0AEFB95F8152100F189010120B6
:1084500004F04AFC334B186804F012FDD5F8BC3028
:10846000C4F88030D5F8C030E366AB7B233B072BE4
:1084700054D9EB7B233B072B50D9B5F8E630B5F840
:10848000EC0095F81411984228BF184609F079FDC0
:1084900095F8E830834228BF034698B295F8E43057
:1084A000984200D3C3B295F8151184F8873005F1CE
:1084B000DC000AF05EF82F7D95F81511B5F8F06034
:1084C00009F05FFD0FB9043080B2864228BF06462E
:1084D000F3B284F8843084F850302B7D23B12946E0
:1084E00005F1A800FFF7B4FB0120FFF77DFBE36A6D
:1084F000D3F8C00104F0E8FC002323606360A360AC
:10850000EB886380B5F8AA30238095F82430237176
:10851000D5F818310BB101221A60F8BD1B23C2E750
:10852000440D0020A4160020014B93F888007047EA
:10853000440D0020024B93F82900C0F3C00070479F
:10854000440D0020014B93F886007047440D002035
:10855000A97C0200417E0200817D0200D57B0200E1
:10856000F0B5070CA7F5AA42144B543A012A03EAC6
:1085700090231FD927F4004042F6AA22801A18BF80
:1085800001200022162116461F2487EA060562EA0A
:108590000505013510D0DD03ADB245EA5606E50309
:1085A000ADB2013945EA52024FEA53034FEA54048F
:1085B000EBD1F0BD0020E4E70020FAE7E0FF3F0048
:1085C000304BF0B55A89B0F86070B0F85E609D89A4
:1085D000974228BF1746964228BF16461B2E85B0E5
:1085E0000C462ED0B5F5A47F2DD040F648039D4211
:1085F00001A928BF1D4608F0DBFEBDF80A30BB42CA
:1086000028BF3B46E380BDF80C30AB4228BF2B4669
:108610002381BDF80630B34228BF33466380BDF8DE
:108620000830AB4228BF2B46A380FF232370E3888A
:108630001B3B9BB2E02B08D940F209513920FEF7D1
:10864000E1FD1B2FCED105B0F0BD63881B3B9BB273
:10865000E02B02D940F20B51F0E72389A3F5A47374
:108660009BB2B3F5E06F02D940F20D51E6E7A38863
:10867000A3F5A4739BB2B3F5E06FE4D940F20F51B8
:10868000DCE700BFD00D002010B501210020FFF76E
:10869000E5F8044670B90121FFF7A4F8044620B9B3
:1086A00040F225313920FEF7ADFD034B93F9181048
:1086B0000AF078FD204610BDD00D0020014BD8886F
:1086C000704700BFD00D0020044BD87CC0F34000A1
:1086D00080F0010000F00100704700BFD00D0020C5
:1086E00008B509F0E0FB00F05BFD00F09BFB09F032
:1086F000A1FE01F0BFFC03F0C7FE084B08480022B2
:108700001A60084B4FF01B11C3E901014FF4A4712B
:10871000D960DA741A801A8208BD00BFA81600203A
:1087200003021B00D00D0020034B41F64C525A614E
:108730001B229A74FFF7D4BFD00D0020F7B5284D47
:108740006B69C0F8DC3000F1A807264BC0F8C430D4
:10875000044638460AF0B9FB064600F053FB830690
:1087600054BF1B23EB88A4F8063158BF1A461E4B92
:10877000A97C1B6848BF2A89A4F8082184F8E41062
:10878000A4F8E66023B194F91C11B4F8AA00984744
:108790001649384609F072F90123EA886979A4F884
:1087A000DA302B89019129790091033303329BB28E
:1087B00092B204F1C00104F1BC00FFF7C1F8D4F893
:1087C000BC3023B940F2E2413920FEF71BFDD4F85A
:1087D000C03013B940F2E341F6E703B0F0BD00BF8B
:1087E000D00D002000093D00AC160020DE0D002059
:1087F000024B1B6803B118470C207047A8160020D5
:10880000034BDA8802801B7983700020704700BF19
:10881000D00D002037B583781A2B054608D8042BD5
:1088200004D9144A22FA03F3DB0705D412241AE010
:10883000292B01D03B2BF9D12888B0F5706FF5D2E8
:1088400001A909F0C2FB88B9019B93F8202102F02D
:10885000FF046AB9AA7883F82121FF2283F8202136
:1088600001A808F078FE204603B030BD0224FAE7E4
:108870000C24F8E7200038040188A1F11B039BB207
:10888000E02B0CD84288A2F5A4739BB244F24810A6
:10889000834204D8034B002059819A8170471220EB
:1088A000704700BFD00D002038B50278447802F040
:1088B000010354EA030102F0020201D1112038BD84
:1088C000BAB98578002DF9D0002B18BF002400E03C
:1088D0001D46204608F05FFD0028EFD0284608F02E
:1088E0005AFD0028EAD0054B00209C73DD731882E6
:1088F000E5E7002BECD000242546EAE7D00D002068
:1089000013B5008801A909F079FB044620B9019844
:1089100090F832311BB13A24204602B010BD90F8D5
:108920005C3003F0FF04002BF5D190F853309B0727
:1089300006D1FF2380F8323101A808F00CFEEBE7E6
:108940000249543009F09EFDE6E700BFF92A030012
:10895000F7B50778EF2F05460C460FD890F90120A0
:108960004378002A0ADB8278900707D113F01000C1
:108970001DD1990603F0030202D51AB1122442E078
:10898000032AFBD01E07F9D42979EA78EE7942EA66
:108990000122697942EA0142A97941EA06212E7A47
:1089A00041EA06418A42E9D81F2A0FD8E6E713F0C8
:1089B000600FE3D103F00702052A05D003F00F0191
:1089C0000D22CA40D107D9D51A07DDD56A7A013AF6
:1089D000062AD3D8AA7A032AD0D813F0040102D1E8
:1089E000023A012A03D8EA7A012AC7D811B9AA7C27
:1089F000032AC3D82A7D48B1012ABFD12A7E012A81
:108A0000BCD830B91124204603B0F0BD022AF5D1FC
:108A1000B4E7DB0712D46B782A7D03F01803082B28
:108A200011D1022AEED101213846FEF717FF064682
:108A300078B10AF06BFBB8B10C24E4E700F0A2F9BE
:108A40000028E8D1DEE7022AEDD02B7F002BEAD008
:108A5000D8E701213846FEF7C5FE064640B3154B60
:108A600093F918100AF09EFB30460AF08BFC294659
:108A70002070E87430460AF0DBFBEB7E0446002BE6
:108A8000C1D00028BFD1B16A0246684608F06CFB2D
:108A9000B06A2246012108F0B3FBB16A684604229D
:108AA00008F062FBB06A2246214608F0A9FBAAE75B
:108AB0000724A8E7D00D002030B50279042A8BB036
:108AC00003464FD84088B0F5804F4BD826498D5C7F
:108AD000114400244A79ADF8004042F0100242EA05
:108AE00045028D7AC97B8DF8084042EA850242EA48
:108AF000C10202F01F028DF80020BDF80020ADF881
:108B000009201A888DF80B208DF80E00120A000A31
:108B10008DF80C208DF80D408DF80F008DF8104069
:108B20005A7B8DF811205A798DF812209A79D3F852
:108B300007008DF81320B3F80B209B7B8DF81A30BB
:108B40007F2305908DF81B3069464FF0011302A872
:108B5000CDE90734ADF818208DF82440FFF7F8FE72
:108B60000BB030BD1220FBE7EC4C050073B5064698
:108B7000FFF78AFD04460AF010FC3378012B054606
:108B80005FD120460AF041FB00287AD020460AF047
:108B900004FC18B115B9122002B070BD20460AF0CD
:108BA000B5FA08B10C20F7E720460AF0ECFA0646C1
:108BB0000028F7D1204602F00DFC0028EBD0ED0193
:108BC00042F2107331462046ADB25D430AF0D1FB4C
:108BD00020460AF0DAFB014658B92A46204601F041
:108BE000F5FD08B90020D7E741F698213920FEF7B6
:108BF00009FB31460DF10600FEF7BCFD064608B93B
:108C00000D20C9E7BDF8061009F007FA31462046E5
:108C10000AF0C7FB3046FFF791FD2A463146204651
:108C200001F0D4FD024610B141F6B421DEE7164B47
:108C3000DB69002BD6D006F5917106F1A8009847A4
:108C4000D0E7002BA7D120460AF0DFFAC8B12046B2
:108C50000AF05CFA0028C5D020460AF006F905465D
:108C600020460AF005F9014600289BD1002DB9D015
:108C7000B5F8AA00FEF708FE0028B3D041F6D621C9
:108C8000B4E7422088E700BFD00D002002780346F9
:108C900072B1427862B142881A2A09D982881A2AA6
:108CA00006D9044A006850609B88138100207047F1
:108CB00012207047D00D0020024B02685A6100203C
:108CC000704700BFD00D00200378A3F10A02112ADB
:108CD0009DBF024A0020937412207047D00D0020DF
:108CE00008B5052000F082F803F08EFB014B024A24
:108CF000DA6108BDD00D0020C185020008B5094B1E
:108D000001221A7002F056FB0AF0FCFC09F0C9F8C7
:108D1000FFF732FB002008F0F4F9BDE8084000F04E
:108D20004BBC00BFF00D002010B5064C0649201DBD
:108D300008F053FE04F108000449BDE8104008F0B3
:108D40004CBE00BFF00D0020480000205000002065
:108D500010B5084C0849201D08F03FFE04F108003A
:108D6000064908F03AFE04F10C000549BDE8104040
:108D700008F033BEF00D00205800002060000020F5
:108D800068000020014B1878704700BFF00D0020EC
:108D900010B5064C00F0ECFB606808F016FEFFF71B
:108DA000C3FC00F07FFD0123237410BDF00D0020F3
:108DB000014B187C704700BFF00D002010B5064C29
:108DC000A06808F002FEE06808F0FFFDFFF788FCED
:108DD0000023237410BD00BFF00D00200048704731
:108DE000010E002000487047030F0020C20804490C
:108DF00000F0070001238340885C03438B547047D5
:108E000010000020014BD3E9000170471000002042
:108E1000034B1868C0F30020400040F00100704789
:108E20001000002008B505F08BF8084A002332F83E
:108E30002310814205D302EB83029378044A137016
:108E400008BD01330C2BF2D10023F7E7004D0500DC
:108E50000510002008B50068B0F8AA30A0F8653108
:108E600090F8143180F86411012B06D0022B04D045
:108E70004FF43F710620FEF7C5F980F8673190F88E
:108E80001531012B01D0022BF2D180F86831BDE8F9
:108E90000840024900F25B1009F0F4BA671A0300B7
:108EA000024B002283F822209A847047061000208B
:108EB000044B93F82220012A1ABF036001200020EE
:108EC000704700BF06100020054B93F822100129BF
:108ED00002461DBF012083F822009A8400207047BB
:108EE00006100020054B024693F8220020B11360C3
:108EF00009B19B8C0B800120704700BF0610002039
:108F0000044B93F8220000229A8410B183F82220A7
:108F10000120704706100020034B93F82200B0FA9E
:108F200080F04009704700BF0610002050B90A4A7F
:108F30001346012003F8010B0868C2F801008A8873
:108F40009A807047012805D1034B0A689A608A8885
:108F5000D8719A81704700BF2C10002050B90B4B7C
:108F6000187888B1D3F80120B3F805300A608B80F7
:108F700001207047012806D1044BD87920B19A68A6
:108F80000A609B89F3E70020704700BF2C10002087
:108F900010B9044B18787047012806BF014BD879E7
:108FA000002070472C100020F7B500238A888DF828
:108FB0000600ADF8042008680B4A8DF80730019DC3
:108FC0001478014602F5A872D8B2844201D808206C
:108FD00008E052F8087F5668AE4208BF8F4203F19E
:108FE0000103F1D103B0F0BD4010002030B5094BB2
:108FF00001465C78002203F20113D0B2844201D80A
:10900000082005E013F8015F8D4202F10102F4D15E
:1090100030BD00BF40100020F0B5254D95F89841B7
:1090200089B0224605F29911684607F089FA21466F
:10903000684608F057FF0446B8B300EB4001C9B2D8
:1090400002A8FEF76BFD631E95F8A161DBB2012457
:1090500095F8981105E0721CB2FBF1F001FB1022AB
:10906000D6B206F120020DEB020010F8202C002AE7
:10907000F1D103EB43012031694406EB46022A4457
:1090800011F8187C82F8A27111F8177C11F8161CDF
:1090900082F8A37182F8A41100F8204C013BAA19B0
:1090A000DBB2FF2B82F89941D2D109B0F0BD00BFED
:1090B0004010002070B5064688B00C46002A4ED0FD
:1090C000294A92F8A131D01890F8991119B9FF21C5
:1090D0002820FEF797F803EB43011144013391F880
:1090E000A251E57091F8A35191F8A411617100218A
:1090F000257180F8991192F89811B3FBF1F001FBFA
:10910000103382F8A13192F8C23123B9174902F520
:10911000DD7009F0B4F9657905F03F0545F04005CB
:1091200065710D220021684607F0CAF9E3788DF8D1
:109130000F3023798DF80E3004AA04236946304697
:109140008DF80D5007F01AF89DF81F3023709DF828
:109150001E3063709DF81D30A37008B070BD0321F0
:109160006018FEF7DBFCD6E74010002019900200E3
:10917000044B5A78824286BF1B1893F84A0100209C
:10918000704700BF40100020044B5A78824286BFCF
:109190001B1893F842010020704700BF40100020C8
:1091A000064B00224FF461711A8083F8C32183F8C3
:1091B000C421A3F8C61183F8C221704740100020D3
:1091C000014BB3F8C60170474010002030B50A4B80
:1091D0005C7884420ED9184490F802012B3003EBDE
:1091E000C004A5790D7053F830001060A3889380F7
:1091F000012030BD0020FCE7401000200246074857
:1092000010B590F8C34124B1417821B1023003F088
:109210005DF9204610BD0C46FBE700BF4010002062
:109220002DE9F74F2F4C9A46637883428046894652
:1092300056D9231893F8425185F00105F9B193F8F6
:109240004A31E3B945F002070135BAF1000F18D1F0
:10925000FA070AD5062101FB084104EB0810524623
:1092600001F585718230FFF725FFBB0734D504EB8C
:109270000810524649460230FFF71CFF2CE02F46EB
:10928000E3E794F8A1614FF0010B002DE0D0A319A2
:10929000019393F8991199B90092DAB100F0D2FADA
:1092A00006EB46012144019B81F8A2014FEA102CF4
:1092B000009A81F8A3C1000C81F8A40183F899B148
:1092C00094F898310136B6FBF3F103FB1166F6B260
:1092D000013DDAE747F00407384603B0BDE8F08FF8
:1092E0000027F9E740100020074B5A78824209D93D
:1092F0001A1892F842212AB9062202FB003000F522
:10930000857070470020704740100020064B5A7847
:10931000824281BF1B1893F83A01B0FA80F04009ED
:1093200098BF0020704700BF40100020034B80F81A
:1093300074101B680BB1408818477047B0160020A6
:109340000B2808B504D940F229112920FDF75AFF4E
:10935000014B33F8100008BD304D0500036830B5EF
:109360000024D3F8C400A3F84040B3F8444042F2CC
:1093700010754443B4FBF1F4A3F844404C1E05FBC4
:109380000242B2FBF1F2A3F84220094AB2FBF1F229
:109390000132A3F848209A8F05FB02445A6BB4FBB4
:1093A000F1F450439C63B0FBF1F0586330BD00BF53
:1093B000005A620213B540F6B8338387B0F8CE2066
:1093C000D0F8C4100190044601A8FFF7C7FF0C4B6A
:1093D0001B68062B01D001330FD10A4B1B68063BDB
:1093E00008330AD9D4F8C800FFF7BAF880F00100B2
:1093F000C0B284F8910202B010BD0020F9E700BFAE
:10940000281600202C1600200346084671B13F2B79
:109410000BD8074AD35C03F07F02914205D08CBF82
:109420000120002000EAD31070470120704700BFE0
:10943000484D0500FF230B7002234B7083238B7074
:10944000014B1B78CB7070470C1200202DE9F84FB0
:10945000D0F80480D8F8186030460C4607F0C5FDF7
:10946000054620B94FF4AA711020FDF7CBFE014646
:10947000304607F0C8FDB5F800B01FFA8BF78246FA
:1094800017B94FF4AC71EFE7224B1B6800F10309E9
:10949000D3B998F8023098F8032023706378A4F8C1
:1094A00002B002F00F0223F00F03134323F0C003B6
:1094B00063709AF8003003F00303012B0FD0022BE6
:1094C0000DD04FF4BB71CFE7B8F802003A464946D9
:1094D000984705460028DCD12846BDE8F88F627819
:1094E00063F305126270304607F093FD054610B92C
:1094F0004FF4C071B8E7FB2F02D940F28F11B3E7E8
:109500003A464946201D07F01BF8304607F0DCFCC0
:10951000E2E700BFB416002038B5134C102200213A
:10952000201D06F0CDFF01252574102204F108034B
:10953000002104F11400C4E9013306F0C1FF84F8EE
:10954000205004F11803C4E90533084A002363627C
:10955000A36284F82C30C4F82D30C4F8313084F87C
:1095600035301360A36338BD0C120020B416002000
:1095700010B5084C2378FF2B04D040F2991110202D
:10958000FDF740FE06F040FE2070BDE81040FFF7FA
:10959000C3BF00BF1D00002010B5034C207806F0AB
:1095A0004DFEFF23237010BD1D000020014B1878D5
:1095B00006F054BE1D000020014B024A1A6070479D
:1095C000B81600204D9402002DE9F341DFF87081B8
:1095D000054608F11407D8F80830D8F81840227A60
:1095E000012A22D1D8F8382052B1137A1BB9BF21F1
:1095F0001020FDF707FED8F83840C4B9002083E0FA
:109600001A7A012AFAD04C4A1C46EFF3108172B63E
:1096100050680068506001B962B6A34208BFC8F83C
:109620003840237A1BB9EE21E2E73A46EDE7267A85
:10963000F6B205232372731E0B2B6ED8DFE803F0FE
:109640006A062235676D3E6D6D6D6D5B636813B99B
:109650004FF40371CCE72046294698470420EFF3E6
:10966000108272B6237A052BD9B24FF0000359D17C
:109670002372D8F83810A14201D1C8F83830B2BBF3
:1096800062B634E0636813B940F21521B0E72946A9
:10969000204698470346C3F30723012BADF8040087
:1096A000C0B22FD0022BDAD11AE0636813B940F2AE
:1096B0001D219DE7204698470020D0E763680BB93D
:1096C000FE2195E786222A7001225988AA706A71C4
:1096D00000225869A5F80310AA7107F0F5FB0420D1
:1096E000D8F83830A34202D10023C8F83830002817
:1096F0003FF471AF08E0114B29461B68204698479C
:10970000034668B9267298B102B0BDE8F0814FF403
:1097100015716DE740F257216AE740F25A2167E779
:109720000220DDE711B940F27B2161E71846A6E788
:10973000002B7FF450AF61E710120020B816002014
:109740000C12002010B51346027A22B140F2023109
:109750001020FDF757FD0A46BDE8104001460148BC
:1097600008F06ABE10120020044890F82C301BB993
:109770000349243008F07DBE704700BF0C12002062
:10978000292403000346064890F83C203AB190F89B
:10979000352022B900F82D3B024908F06ABE704717
:1097A0000C1200203594020010B50A46037A23B14A
:1097B00040F20A311020FDF725FD0146BDE81040BA
:1097C0000148072308F038BE201200201346027A11
:1097D0000AB1037270470A460146014808F02CBEE0
:1097E000101200201B234FF01B128384038482611C
:1097F0008382C260038539B94FF4A473034AC384DA
:109800004384C261C3820261704700BF48014801BE
:10981000014908F037BE00BF8B2403000B8BA2F870
:109820000B304B8BA2F80D308B8BA2F80F30CB8B0B
:10983000A2F809000249A2F81130104608F01CBE37
:10984000DB240300094AD2E90003434083EAB01154
:1098500081EA43214FEAF3435360054B11605843BB
:109860004FEAF06000EB8000704700BF4C12002010
:10987000BB79379E094AD2E90003434083EAB0111D
:1098800081EA43214FEAF3435360054B116058438B
:109890004FEAF06000EB8000704700BF200000201E
:1098A000BB79379E10B50A4C09480821FEF736F9F6
:1098B000D4E900321343F7D0064CFFF7DBFF2060FA
:1098C000FFF7D8FF236860601843F6D010BD00BFD3
:1098D000200000204C120020174B184A9A60184AAA
:1098E0005A60184A1A60184A9A62184ADA62184A84
:1098F000DA60184A9A61184A1A63184A1A62184AB2
:10990000DA64184A9A64184A5A62184B184A9A60DC
:10991000184A5A62184ADA62184A1A61184A5A6191
:10992000184A9A61184A1A63184A9A64184ADA64FB
:10993000184A9A63704700BFBC1600201528030020
:109940003B280300A12803005D290300A729030089
:10995000999C0200B92903000D9F0200959D020009
:109960007D2A0300952A0300E19D0200BC17002018
:109970002B280300512A0300D7290300872903005D
:10998000F7290300259D02001B2B0300C32A0300B7
:10999000B52A03003B2A0300044B054A5A65054BD0
:1099A000054A1A65054A5A65704700BFBC16002073
:1099B000C92B0300BC170020B32B0300352C030078
:1099C000054B064A9A65064A1A66064B064A9A6588
:1099D000064ADA65704700BFBC160020531C03001E
:1099E000071D0300BC170020A31B0300871E0300F4
:1099F00037B5044601A80D46FFF75AFA20B94FF4CF
:109A0000AA615120FDF7FEFB00210198222206F0F9
:109A100057FD019B194601F8035F023D232D00F21B
:109A20008980DFE805F02587128A8A25872B878AB7
:109A3000313D418787458A8A4E4E6565878787878E
:109A4000878787878787876C77802168D1F8CE21C1
:109A50005A60D1F8D2219A602268D2F89420DA6054
:109A60000D20FFF731FA002869D140F25751C8E7BD
:109A7000226892F8A0201A710220F2E7204600F036
:109A80000BFA0028EDD13DE011221A7159225A71CA
:109A900000229A713922DA7110221A720620E0E748
:109AA000226892F89A20E6E7084600F0E3F9E8E732
:109AB000226892F89B10197192F89A205A7103202B
:109AC000CFE72268B2F800111971090A5971B2F88A
:109AD000A2109971090AD971B2F8FC101972090A19
:109AE0005972B2F8A0209A72120ADA720920B8E705
:109AF000226892F82E11197192F82F21DEE7114B8E
:109B00001B6813B940F249517BE72320224698474E
:109B10000420A6E70B4B1B68002BF3D02246242021
:109B2000984705209DE7074B1B68002BEAD022468B
:109B30002520F5E740F2445163E7012091E703B0A7
:109B400030BD00BFBC1800203F289ABF024B53F81D
:109B500020000020704700BFBC1600203F289ABF9D
:109B6000024B53F820000020704700BFBC170020B4
:109B7000F7B50568D5F8BC6004464FF6FF770DF1E0
:109B800002010DF101023046ADF8027007F052F902
:109B900001A9304607F073F948B1019807F037FA88
:109BA0002168A83100220272FFF7FEFDE7E70449B1
:109BB00005F1280003B0BDE8F04008F05DBC00BF2F
:109BC000A9270300F0B5044685B00D46FF2600F82E
:109BD000A56C10F8A63CF3B1174F3B781BB162217E
:109BE0001F20FDF70FFB0C21381DFDF797FF3E707E
:109BF000002304F8A53C2A468A2302F8033BD4F844
:109C00000930C5F80330D4F80D305360D4F8113062
:109C1000936005B0F0BD01A80C21FDF77FFFA4F50E
:109C2000F473039A1A6001AB03CB44F8AE0C44F80A
:109C3000AA1C04F8A66CDBE75412002010B5054CF2
:109C400023782BB90C21201DFDF768FFFF2323701B
:109C500010BD00BF54120020024690F8D631BBB9A7
:109C600090F8D73103F0FF010BB100207047094B8A
:109C700018780028F9D01970D968C2F89410043304
:109C800003CBC2F8CE01C2F8D211FF2382F8D6313D
:109C9000012070475412002038B50268D37B044677
:109CA0000D463BB1122B05D0103B0F2B8CBF012072
:109CB000082038BD92F8523013B9204608F03AFD1A
:109CC0002268D5F80B30C2F8C631D5F80F30C2F88B
:109CD000CA312368D5F81320C3F89020B3F8AA201E
:109CE000A3F88522D5F80120C3F88722D5F80520EE
:109CF000C3F88B222368B5F80920A3F88F222368C4
:109D0000002583F89E5183F8D6512068044900F558
:109D10001F7008F0AEFB23681522DA732846C8E7E7
:109D2000C59B020010B50368DA7B1F2A044604D0E5
:109D300040F29D211F20FDF765FA93F85220B3F8F9
:109D4000AA00002183F8511082B1C3F8A91183F849
:109D50005210A3F8AD110D49A3F8AA0103F5D07074
:109D600008F087FB23680022DA7310BD0121A3F8F5
:109D7000990183F89B1183F89821054983F89F2165
:109D8000A3F89C2103F28F10EAE700BF45290300E6
:109D90002D29030038B505682B6813F0010419D18B
:109DA000D1F801200C4BD1F8051013400B4AC5F82F
:109DB0006230C3F3076343F008030A4085F8653057
:109DC000C5F8662008F0B6FC2B6843F001032B6051
:109DD000204638BD0120FCE72FC904F76FDB008067
:109DE00010B50068837B042B2CD1D1F80130D1F859
:109DF0000540C0F86230C3F3076343F0080380F8FE
:109E0000653000234A1CC0F8664080F84A308373EE
:109E100090F8713103F0FF040BB1002010BDB0F8D1
:109E2000AA30A0F8733180F87241D1F80130C0F83F
:109E300075315368C0F87931034900F2691008F0B0
:109E400018FBEAE70120E9E7112A0300006890F80F
:109E500071315BB9B0F8AA30A0F873311A2380F8D9
:109E60007231034900F2691008F003BB704700BF6C
:109E7000112A030010B50446FEF7C4FF044A054B3F
:109E800002400B40C4F80120C4F80530092010BD81
:109E90002FC904F76FDB008037B50C460568FEF765
:109EA000B1FF0A4A0A4B0A4095F86210019203403A
:109EB00000930B408DF800306B4603CBC4F80100D3
:109EC0000920C4F8051003B030BD00BF6FDB00806F
:109ED0002FC904F738B5DB04154604D5037D13B14B
:109EE0000023436338BD446B0134446308F0F4FD40
:109EF000836B9C42F6D30023436303492846BDE8A5
:109F0000384008F0BFBA00BF712A030038B50468B2
:109F1000A37B012B054602D02368980738D494F818
:109F200053309A0713D44A7884F85D204A88A4F8FD
:109F30005E208A88A4F86020D80743F0020284F8E3
:109F400053200FD5134904F1540008F09BFA94F8FC
:109F50005330D90711D423689A0708D558214020D7
:109F6000FDF750F994F83231002BEBD1EFE743F0D5
:109F700002032360284608F0DDFBA37B012B4FF092
:109F8000000301D0002038BDA37384F84A30F9E7FC
:109F90000120F8E7F92A030070B50568044602F0CD
:109FA00051FA054BE8721B6801461BB12046BDE81B
:109FB0007040184770BD00BFC4180020024B1B68DA
:109FC00003B11847704700BFC0180020F0B51F4DFF
:109FD0002B78002414709BB1013B6D68DBB21E1B13
:109FE000012E0FDC05EBC40655F8347076688E42FE
:109FF00008BF874227D0B84271EB060612D2147010
:10A000000020F0BD1E19771005EBC70E55F837C0BC
:10A01000DEF804708445C6F347068F412CBF3346F3
:10A020003446DCE705EBC30455F8335064688C42D2
:10A0300008BF854206D0A84271EB040428BF013353
:10A040001370DDE71C4614700120DAE7741200205B
:10A0500010F0070208B503D063214820FDF7D2F8BD
:10A0600018B1034B197258601A70C80008BD00BFC0
:10A0700074120020014B00221A70704774120020E5
:10A08000FF230B70074A0D234B7082238B701368DC
:10A09000C1F803305368C1F807309368C1F80B303A
:10A0A000704700BF8A12002002481622002106F0E5
:10A0B00007BA00BF8A1200200B4B5A7D92B14A06A4
:10A0C00010D5B0F8AA201A80D0F850225A60D0F8E3
:10A0D00054229A60C2885A800449022203F10C007B
:10A0E000FFF774BB704700BF8A12002081A00200F6
:10A0F000094B53F8203070B503F523430C46164640
:10A10000A1334FF47A72B3FBF2F503F02FF8344425
:10A110002C44204470BD00BF4C4E05002DE9F04F8B
:10A120008FB09A4690F815310793044689460692F7
:10A1300007F097FC834694F81F01FFF701F9834469
:10A1400008F02FFDE37B0393069B1FFA8BFB00F1C6
:10A150006007002B4BD1637B032B48D1039B0C2B57
:10A1600032D1B4F86C324B452ED1D4F8F031C4F86A
:10A17000E031D4F8C430B4F8C421C4F8E431B4F800
:10A1800062321344C4F8E831204602F007F9D4F8EB
:10A19000742294F81D31C4F8C42041F64B518A4210
:10A1A0008CBF002303F00103D4F87012D4F8782296
:10A1B000C4F8D41084F81E31B4F86E12A4F8D81084
:10A1C0000223C4F8CC206373E37BA17B282B01D04E
:10A1D00028290CD1B4F86C32A9EB03031A0406D475
:10A1E000A1F1280359425941204601F099FCB4F8E5
:10A1F000605294F815310893A9EB05052DB204F5CA
:10A200000C73002D0493BEBFD4E99223C4E99623B6
:10A210000123B4F80680B8BF0493D44BA8BFCDF88F
:10A2200010A0A9EB08081B780FFA88F8B8BF4546BC
:10A2300013B103F079FE50B90026637B032B00F2C3
:10A24000D581DFE813F069006F01BE009701B4F813
:10A25000D831012BF0D9637B022BEDD094F8026248
:10A26000002EE9D194F81F01FFF76AF8637B00F52F
:10A27000C86B012B1FFA8BFBD9B23FD1A27CD4F85B
:10A28000D430032A33D1D4F8E42113445946D4F806
:10A29000E401099303F00CFED4F8E061099BD4F8C3
:10A2A000E821C4F8E001861B59461846564303F0DE
:10A2B000FFFDD4F8EC31C4F8EC01C31A5946D4F8C8
:10A2C000C4001E4403F0F4FDB4F8C431D4F8E8210E
:10A2D00043445B1B9B1AD4F8F021013B821A02FB1A
:10A2E00003660123C4F8F00184F80232A5E7304682
:10A2F000099307F055FE099B0344C7E7D4F8C4004F
:10A30000594603F0D5FDB4F8C461D4F8F0314644A1
:10A31000761BC31A5E43E4E70121002007F040FEEC
:10A320008046D4F8D4005946404403F0C1FD594654
:10A33000C4F8EC01D4F8C40003F0BAFD0BA9C4F8CA
:10A34000F0010CA802F05EFE0B9B0093D4E996018D
:10A35000DDE90C2303F07EFE049004F1A80008F070
:10A3600092FCD4F8D410D4F8642294F815018D1816
:10A3700002F004FFD4F8EC11049B203D6D1AED1B94
:10A38000454400F52340ED1AA1304FF47A73B0FB39
:10A39000F3F0B4F8D83030312D1A03EB410194F8C2
:10A3A00015013A46FFF7A4FED4F86432EB1A2230C6
:10A3B000DA2BC4F8F4015DD840F2C7413020FCF735
:10A3C00021FFD4F8D430D4F8E4015946184403F0FE
:10A3D0006FFD5946C4F8EC01D4F8C40003F068FDE1
:10A3E000C4F8F00104F1A80008F04DFCD4F8D43012
:10A3F000D4F8E4511D44B4F8C431002B40F08E80F1
:10A40000BAF1000F00F08A8094F8150102F0B6FE50
:10A41000D4F8EC11D4F8503294F815216D1A203D7F
:10A420001D44D4E992BC524B53F82220A5EB0B05F6
:10A430004FF47A7302F2E732B2FBF3F21544ED1BEC
:10A4400000F52340A130B0FBF3F02D1AD4F8E82139
:10A45000D4F8E03194F8150102FB0313B4F8D810D6
:10A46000303301EB43013A46FFF742FE0123C4F8C3
:10A47000F4016373D4F8C430D4F8F0217E3B9B1A06
:10A48000DF1B002384F83032D4E996328742A5EBF3
:10A49000060528BF07465B1942F10002C4E9903265
:10A4A000C4F8C07104F1DC0008F061F8042384F8FA
:10A4B0003932D4E99023C4E99623B4F8B031A4F832
:10A4C0006092A3EB09031BB2002BD4BF0022012230
:10A4D000520084F83822039A38440C2AC4F8340213
:10A4E00000F08780BAF1000F40F08680637B002B7C
:10A4F00000F09F80D4F8C410D4F8F03104F50C704B
:10A50000C91A07F010FD80B2002800F09280189B55
:10A5100003B1188001200FB0BDE8F08FD4F8EC1122
:10A520006D1A93E7D4F8F011D4F8C430B4F8C4210C
:10A53000D4F8E8015B1A4244121A5D43D4F8EC31B6
:10A5400002F1FF3CD4F8E021303302FB003301FB81
:10A550000C33B4F8D81094F815013A4601EB4301D6
:10A56000FFF7C6FDC4F8F40184E700BFA012002085
:10A570004C4E0500D4F8F0E1D4F8C430B4F8C4C1AE
:10A58000A3EB0E035D43049B3BB3BCF1000F24D14E
:10A59000D4E99423D4E99201904271EB030302D3EE
:10A5A00040F20E510AE707992B4B53F82130D4E9BA
:10A5B0009201CDE904010498203A121A03F2E7311E
:10A5C0004FF47A7B03F52343B1FBFBF10A44A1333B
:10A5D000B3FBFBF3D21AD21B15440CEB08010EFBA4
:10A5E00001F1303108983A464900B9E740F2265166
:10A5F000E4E6BAF1000F1CD0B4F8D80118B3B4F8EF
:10A60000DA1194F8DC21A4F8DA1101FB022290425D
:10A6100001F101050DDD002B0BDD002384F838323C
:10A62000A4F8DA51FFF70EF900F00700013084F8C2
:10A63000DC0104F50C7104F5027004F021FE20B970
:10A6400040F27651BAE60146DBE7069B83F0010350
:10A6500084F8003200205EE74C4E05002DE9F843F7
:10A660000E46044618B9D3213020FCF7CBFD05294E
:10A6700000F2A780DFE801F00376413DA52E03F04C
:10A680002BFEC4E94601204600F0C8FFD4F80C01B7
:10A69000CB3803F0D7FC204608F07FFE054600BB10
:10A6A0000146204608F0B6FD00F1E506D4F80C019D
:10A6B000B04209D2301A322838BF3220032103F0C9
:10A6C000DBFD60B103F0C2FCC4F80C61204608F069
:10A6D00076FE45B12046BDE8F84308F071BE01257D
:10A6E000F2E70025F2E7D4E94623C4E94023BDE8B8
:10A6F000F883BDE8F84302F091BC08F096FD04230E
:10A7000084F811318146884603F09AFC07220F46EF
:10A71000A9FB023102FB0811D4E940525B1941EB5D
:10A720000205D4F8E8203AB159EA080204D0984268
:10A7300077EB050228BF012684F81061D4E948268A
:10A74000121A66EB070694F8301139B9012A76F12E
:10A7500000010BDA204600F069FF03E0012A76F1E0
:10A760000006F7DB002384F82831C0E7984277EB36
:10A7700005010FD259EA08080CD01B1A65EB070136
:10A780009A4276EB010005DB012B71F10000A4BFBA
:10A790001A460E460C490123914284F829314FF0A4
:10A7A000000384F80831B341B8BF0A4604F1C00081
:10A7B00004F5847104F0F8FD002898D140F2B261EC
:10A7C00052E7EF2150E700BF0040420F2DE9F84368
:10A7D00004460E46154690F8283103F0FF07002B7B
:10A7E00040F0948000F1C00839467822404605F0D8
:10A7F00067FE47492246404604F03CFDC4F8E86045
:10A80000FF2384F8283166B1FFF734F800F0070021
:10A81000013086F8DC013F49324606F5027004F04B
:10A8200029FD40F202434FF00009A4F8103184F8EA
:10A83000089103F08FFB00F19E06204608F0ADFD65
:10A84000B6B20146C0B307F00CF900F1280189B295
:10A85000284603F02DFB2844C4F80C0103F0F0FB5C
:10A86000301841F10001C4E94601012084F8EC00F0
:10A87000A4F81E9008F043FEE53D2D1AC4F8F050F0
:10A880004FF0FF356FF00041D4E94623C4E9485149
:10A890000025C4E93E23C4E9402384F8295142F24B
:10A8A000107204F58471404604F07EFD38BB40F21E
:10A8B000B9113020FCF7A6FC204608F0ABFCDFF80D
:10A8C0005890E530C4F80C01B9F8020048B1E08BAB
:10A8D00038B1FEF7CFFFB9F80230B0FBF3F202FB5C
:10A8E0001300064403F0ACFB361841F10001C4E943
:10A8F0004661002DC4D0AD1941F10001C4E72946DD
:10A90000204608F05FFD3846BDE8F8830C27FAE7DB
:10A910005DA60200A12C0300A0120020F0B50023C8
:10A9200085B0CDE9003301238DF806306846FCF789
:10A93000CFFF70B1104E012333710023CDE90233F4
:10A9400002A8FCF7C5FF044638B10023337105B0F7
:10A95000F0BD009808F08CFAE8E7029D6B7B002BB5
:10A96000EED005F50277384603F020FC384603F0B8
:10A9700031FC6C73E4E700BFA0120020054B0022FD
:10A9800001215A7119701A7142F210725A80FFF740
:10A99000C5BF00BFA0120020014B5871704700BF17
:10A9A000A012002008B502F071F8044B9A688242A8
:10A9B0002ABF1879002080F0010008BDA0120020F5
:10A9C0002DE9F3470446062900F2DB80DFE801F0B9
:10A9D00004847381878CD300D0E99201D4E9942355
:10A9E000904271EB030354D294F80232002B50D002
:10A9F000637B032B4DD108F0D4F894F815A1814660
:10AA000007F02FF8064694F81F01FEF799FC06445C
:10AA100094F81F01FEF794FCD4E99223D4F8507205
:10AA2000D4F8C05180465046BF1A02F09FFB564AE8
:10AA300052F82A20A5F1600302F52342A1324FF417
:10AA40007A71B2FBF1F29B1AA3EB09031B1A09F10D
:10AA5000890909EB5309B6B2603B08F5C86873432E
:10AA60001FFA88F8B3FBF8F360335A08A9EB5303D5
:10AA70009F4202D391444F4501D903F05BFAD4F8C9
:10AA8000C400314603F014FA0023C4F8F00184F83E
:10AA900002323E4B1B7903F0FF0263B90092B4F817
:10AAA000B41101232046FFF739FB30B140F2CE61EB
:10AAB0003020FCF7A7FB0423637302F079F904F05C
:10AAC000C5FBE288A4F8FE210023A4F8623284F8D2
:10AAD000013202B0BDE8F08703234373F9E708F0C1
:10AAE000B9FEC4E99401F4E790F81501274F08F086
:10AAF000BAF86E30D4F8F031D4F8C45095288CBF31
:10AB00000020C0F19600C218954288BFED1A7B79EB
:10AB10008CBF2D1A002523B9D4F8DC309D4228BF04
:10AB20001D4604F1DC00D4F8C06107F020FD0644A6
:10AB3000022003F075FBAD1B25EAE575854228BFB1
:10AB400005460221284603F097FB10B103F07EFA78
:10AB50002E440123DC22314604F1A80007F0B2FDA7
:10AB6000D4F8C031B860D4F8C400184402B0BDE8CD
:10AB7000F04703F067BAA83002B0BDE8F04708F02C
:10AB800082B840F29C7193E74C4E0500A012002061
:10AB9000014B5880704700BFA0120020074A0346AF
:10ABA0001068D3F84920C0F80320B3F84D20A0F86E
:10ABB000072093F8481007F033BB00BFAC12002009
:10ABC00070B504460E466588807D15F00401134675
:10ABD00018BF04F157013246FEF722FB4107054634
:10ABE00021D4C2070BD5012384F84830A07DFEF79D
:10ABF0007BFB0368C4F849308388A4F84D30AB0769
:10AC000001D4012070BD094B1868D4F857300121D8
:10AC100084F85610C0F80930B4F85B30A0F80D3055
:10AC200007F007FBEDE70020ECE700BFAC120020C7
:10AC300038B5C38C0F4D0133C3F30E03C3842B7C93
:10AC400004462BB102F09EF901F072FC00232B7434
:10AC500000232B7194F869302BB101212046BDE807
:10AC6000384008F0D1B9637C13B1E28C9A42F4D237
:10AC70000021F3E7AC12002010B5074C2379012B1B
:10AC800005D1237C1BB102F07DF901F051FCA069D4
:10AC9000BDE81040FFF7CCBFAC12002070B5254CCA
:10ACA0002379012B04D040F682412D20FCF7AAFA2B
:10ACB00098B90125237C1BB102F064F901F038FC3E
:10ACC000002D36D0A06908F0EEF868B302F020F845
:10ACD000E369BDE870409B6818472168A26911F8D4
:10ACE000095B02F14903E80992F8482007F0DCF813
:10ACF0000028DED02068002107F0C0FA0028D8D054
:10AD00002379A069012B02D040F65C41CDE723797D
:10AD1000E26903F180435269013B05F00F0152F8EB
:10AD2000233098470546C5E7A069BDE87040FFF7A6
:10AD30007FBF70BDAC120020074A0346906903B97B
:10AD400009B9FFF775BF1379D26903F1804312691E
:10AD5000023B52F823301847AC1200202DE9F04393
:10AD6000032985B00546174607D14388980723D4A1
:10AD70000024204605B0BDE8F083428890F8683092
:10AD8000D107DBB2F4D5002BF2D14FF00108DFF888
:10AD9000D49099F81060C6B107F0BBF80828387055
:10ADA00016D002AA0DF10701FEF710FA38B940F6E5
:10ADB000F7612D20FCF726FA4FF00208E7E79DF82F
:10ADC000070002A907F0D5FE06463B78082B08D1FC
:10ADD000D9F8001011F8030BC0F3801007F0C9FE7A
:10ADE0000646D9F8001095F84F2011F8030B05F12D
:10ADF0005003C0F3801007F057F8D9F8001004464C
:10AE000011F8030BC0F3801007F079F88146FEF7C4
:10AE10007DFA40B1B9F1080F1BD04846FEF7A8F9FA
:10AE200080F00103D8B23A78082A14D01CB9AC7D5E
:10AE3000A21A544254416A8853079AD4002897D1E1
:10AE400076B9EC7C444518BF002C0CBF01240024CB
:10AE50008FE70020E7E780F001022240D4B2EAE762
:10AE6000344686E7AC1200202DE9F04F85B0082368
:10AE70000DF10702052104468DF80730FFF76EFF3C
:10AE8000064620B90026304605B0BDE8F08F794F60
:10AE900039687A7C11F8030B07F11203C0F38010B4
:10AEA00007F002F880460028ECD13B68A1691846FB
:10AEB0008D7D10F8032BC2F340122A408A75D3F817
:10AEC0000320C1F8AD208288A1F8B1201D46A269F7
:10AED00015F81F1BC1F3801182F8AC10D3F81F00C6
:10AEE000029002A928790871D3F80F00C2F8C800AF
:10AEF000587D1D7D000440EA0520DD7C2843C2F812
:10AF0000D000B3F8190082F81E8140F2E24909FB33
:10AF100000F0C2F8C4009D7DC5EB451005EB80052F
:10AF200005EB85056D00A2F8D850B3F8170009FBB2
:10AF300000F0C2F8D400B3F81B00A2F8CC00B3F8BC
:10AF40001D00A2F8CE0093F8243003F01F005B0927
:10AF500082F8220082F81F31A56994F912A005F148
:10AF6000160007F0BBF840F20113A5F814314FF0BA
:10AF7000FF0B85F816B1414605F1DC00FEF732FC07
:10AF8000514605F1A800FEF7D1F9A36984F8738052
:10AF9000B3F8AA20A4F8742084F891B04FF6FF7299
:10AFA000A4F89220D3F8C420B2FBF9F2A4F88A20C6
:10AFB000B3F8CC20A4F88C20B3F8CE20A4F88E20CF
:10AFC00093F81F2184F89020627D9DF8070004F11A
:10AFD0007E0162B394F84820012A28D194F84E20CB
:10AFE00002F0C002402A22D1D4F84920C4F87E20C1
:10AFF000B4F84D208A8093F8AC2084F87720082894
:10B0000003F1AD0504F18401D3F8AD3004F1780209
:10B0100027D0C4F88430AB888B8004F17701FEF729
:10B02000D5F840B940F6E2312D20FCF7EBF80022CC
:10B03000C4F87E20DEE794F8773043F0020384F80A
:10B04000773004F16A000C4907F013FA0B4BA06942
:10B050001B6800223A71002B3FF415AF2146984738
:10B0600011E7A367AB8893800023C4F884308B80FA
:10B07000E7E700BFAC12002031310300CC180020FC
:10B08000032937B5044604D0052953D0012003B065
:10B0900030BD08230DF107028DF80730FFF75EFE83
:10B0A0000028F3D0237C284D03B39DF8070094F8C3
:10B0B000B630DBB9237884F8B730082804F1B90238
:10B0C00029D004F1B801FEF781F820B94FF4776177
:10B0D0002D20FCF797F894F8B83043F0020384F879
:10B0E000B8301A4904F1AE0007F0C3F92B68042206
:10B0F0001A7006225A702046FFF750FD286894F80F
:10B100003820616B07F0ABF8032328682B7101F03E
:10B11000BFFE0020BBE72868034613F8031BC1F3FA
:10B12000801184F8B810D0F80310C4F8B9109B88C7
:10B130009380D6E7064B1B68002BEAD0984780F037
:10B140000100C0B2A3E700BFAC1200201931030018
:10B15000C8180020F8B504460F4619B300F12005C1
:10B16000284608F0A5F9A0B963881A072ED5284605
:10B1700008F0B5F90646284608F09AF9301AC0B228
:10B1800008F0BDF9474A936803442846936008F0E5
:10B190006BF9284608F06DF901F038FD217925207A
:10B1A00001F098FC3F4E94F856203068002303705D
:10B1B00043706388103B0D2B64D8DFE803F05F63B6
:10B1C0005B0C634063636363636363402046BDE875
:10B1D000F840FFF72DBD062343702023037020465F
:10B1E000FFF7DCFC638823F008039BB2152B05D026
:10B1F00094F83020E16A306807F022F8306801F0F6
:10B2000047FE022321793371002001F00DFD054630
:10B2100007B9F06063881B0704D508F06DF9054491
:10B22000C4F8F4506388103B0D2B36D8DFE803F0E8
:10B2300038352F2F352F353535353535352F0C230E
:10B2400043700346212103F8091B52B1D4F857205B
:10B25000C0F80920B4F85B209A80012106F0E9FFCC
:10B26000BDE7226DC0F80920B4F854209A8094F804
:10B270004F10F3E7062303704370B0E70223037017
:10B280000623F9E740F259612D20FBF7BBFF217936
:10B290000120BDE8F84001F09BBE40F6F541F3E720
:10B2A000F8BD00BFAC12002038B54388102B04460F
:10B2B00004D1BDE838400121FFF74CBF0B4D2B7C7A
:10B2C00023B101F01BF9402001F050FE286801F085
:10B2D000DFFD608810F0040002D1217901F078FED2
:10B2E000002001F029FE01232B7138BDAC12002093
:10B2F000024B01219869FFF72DBF00BFAC1200205F
:10B3000010B5124C237C1BB101F03CFE01F010F98A
:10B31000A06907F0C8FD38B12379012B09D040F6A8
:10B3200086312D20FBF76EFFA069BDE81040FFF7C6
:10B330007FBC2379E269A069D26803F18043013BB5
:10B34000BDE8104052F82330184700BFAC1200206F
:10B3500010B50748037903F0FF0433B914222146DE
:10B36000043005F0ADF8204610BD0C24FBE700BF0B
:10B37000AC12002010B50A4C00232371FDF72EFDFE
:10B380002060FFF7E5FF20B14FF442712D20FBF75D
:10B3900039FFE36913B940F20B31F7E710BD00BF85
:10B3A000AC120020014B024ADA617047AC12002057
:10B3B00078B60200034B044A1A60044B044A1A6030
:10B3C000704700BFC818002069AE0200CC180020EA
:10B3D000BB2F0300F8B5057DAF1E0446FFB2002D5C
:10B3E0003AD0012F2DD800F1500190F84F0006F00F
:10B3F00086FD0828064624D0FDF7C6FE10BB023D98
:10B4000018BF0125012F8CBF0027012784F8485061
:10B410006775A675FDF7D4FE054602F011FE154BC3
:10B420000022E5FB0301C4E9100184F8562011460F
:10B430002046FFF7C5FB70B940F2A3412D20FBF772
:10B44000E1FE0826022D09D104F149010020FDF793
:10B4500085FD60B90020F8BD0826F5E704F1490133
:10B460000120FDF77BFD0028F4D00125CAE7002567
:10B47000C8E700BF40420F00F0B5444E327985B0B6
:10B48000044602F0FF0312B90278FF2A04D140F605
:10B49000DD112D20FBF7B6FEB36080F869303C4B20
:10B4A00000933C4B01933C4B0293F36968465B6805
:10B4B000039301F0E5FC01F04FFB01F063FD01F0A7
:10B4C00037F8364801F098FB04F12005344801F0C4
:10B4D000D1FC284607F0C8FF284607F0CAFF01F054
:10B4E00095FB2179252001F0F5FA94F9120001F07D
:10B4F0007DFB04F12C01A06A05F0A7FE04F13401E4
:10B500000746A06A05F0C8FE0546DFB1237FCBB130
:10B51000B4F92650ED43ED0F637D13B963885B07E3
:10B5200009D5D4E910126FF000439A4208BFB1F177
:10B53000FF3F0DD19DB930680330FDF75FFE3074D9
:10B5400005B0F0BD002DE7D0657F002DE0D1E3E729
:10B5500002F076FDD4E9102390429941EAD301220A
:10B5600029462046FFF72CFB50B1FDF729FE054682
:10B5700002F066FD0B4BE5FB0301C4E91001DAE7BD
:10B58000002DD8D040F61C2183E700BFAC1200206C
:10B5900001B302009DAC020039AD0200D6BE898E17
:10B5A0005555550040420F0073B50446FFF764FF40
:10B5B00000212046FFF7CEFD236E0BB101221A6059
:10B5C0006388DB0724D50023124EA569CDE900333B
:10B5D000FF2373746846FCF77BF9C8B9009CA54249
:10B5E000F8D095F8B32094F8B30005F1B40304F152
:10B5F000B40106F059FC0028ECD094F8AC30737418
:10B60000D4F8AD30C6F81230034BB4F8B1209A80AC
:10B6100002B070BDAC120020BE120020024B986137
:10B62000DB691B68184700BFAC12002043881B076A
:10B6300010B5044612D583690A493C2280F873206C
:10B64000B3F8AA30A0F87430FF2380F891304FF699
:10B65000FF73A0F892306A3006F00BFFFF2384F8E6
:10B66000693010BD313103007D310300A9B2020001
:10B670008331030081B00200A9B5020079AC020059
:10B68000F1B2020068B602006CB6020074B60200A5
:10B690000138022808B503D9C4212F20FBF7B2FDD9
:10B6A00013290A4B05D811290CD8102907D0D2210B
:10B6B000F3E71529FBD103EB4003D88801E033F809
:10B6C000100008BD03EB40039889FAE7CC4D050054
:10B6D000294A38B5948803461C43402B106894804F
:10B6E00004D10421BDE83840FFF76AB9802B01D1AD
:10B6F0000521F7E703F00304032C04D140F6A4313D
:10B700003120FBF77FFDDD0706D50C6891602478BA
:10B71000062C0FD00B2C17D09C0706D5096809788A
:10B720001173052919D00B2921D09B0644BF08238A
:10B73000537338BDC47B1B2CEED100240025C0E917
:10B740001C450124C474E7E7C47B112C01BF00240D
:10B75000C474012480F85240DEE7C17B1729E4D18C
:10B7600000240025C0E91E4501210175DDE7C17BEC
:10B770001029DAD10021F8E7CC1200200C4A517BC5
:10B78000034689B910683BB9B0F80411B0F8E82055
:10B79000914209D8FFF706B993881B0706D5007CAC
:10B7A000073818BF012070470020704701207047FC
:10B7B000CC12002073B504460068036813F0300F04
:10B7C0000D4649D1B1F805101A2904D9B5F807304A
:10B7D000B3F5A47F06D22978204602B0BDE87040B8
:10B7E00006F0D1BFB5F801201A2AF4D9B5F80360E4
:10B7F000B6F5A47FEFD30096DC3006F0CAFE174BF7
:10B800009A8892070DD51B7B142B0AD122681368E6
:10B8100043F010031360204606F08CFF002002B0B6
:10B8200070BD23689A7B202AF0D093F82331002B37
:10B83000ECD1236893F82231002BE7D123681A68F2
:10B84000B3F8AA0042F020021A6003F1DC0103F50C
:10B85000A472FDF7E3FFDEE70120E0E7CC12002051
:10B860002DE9F843614D06462C6800287ED1AB884F
:10B870001A0725D594F89E30FE2B04D140F2FB51D7
:10B880003120FBF7BFFCFE2384F89E30E37B1D2BA9
:10B8900005D184F85100284606F056FFE673A37BD5
:10B8A000232B06D1E37B233B072B94BF2A2324239E
:10B8B000A373237C072B02BF0223AB7384F89E3053
:10B8C000AB88DB0717D4AB885F0776D499077DD5A3
:10B8D000287B2B6801220D2883F89F2073D0112824
:10B8E0007DD007287DD0FEF739F9034600286BD1BB
:10B8F00040F2EE51C4E7D5F80080A96898F80F30FF
:10B90000D1F80090103B0F2B99F8007009D8BB1E9E
:10B91000DBB2092B67D840F2333222FA03F3D8079F
:10B9200061D509793846FDF76FFD20B939462F48B2
:10B9300006F029FF39E0012F01D9162F21D198F8FF
:10B940000E0006F010FF40B198F80E30232B04D003
:10B95000242B07D12A2388F80E303846FEF7F4F856
:10B9600003461BE0162F14BF022620266B7B1B0705
:10B9700004D5E37B103B0F2B98BF08263046BDE86B
:10B98000F883112F15D005D8072F14D00D2FE4D12F
:10B99000174B05E0142FE0D1164B1B68002BC5D0C8
:10B9A000AA68124812794946984700288BD0064663
:10B9B000DCE7114BF4E7114BF2E7227C062A04BFC7
:10B9C0000122AA7382E70E4B08489847AB88DA0633
:10B9D000CCD5E37B092BC9D10A23E373C6E7094B16
:10B9E000F2E7094BF0E70826C0E700BFCC120020C1
:10B9F00075360300D0180020B936030091BA020052
:10BA00009F350300EB350300153603002DE9F041A7
:10BA1000A0F10E040B1EE4B208BF1F23172C16461C
:10BA20000AD80125A54040F251210D4207D115F455
:10BA300060051FD1082C07D00020BDE8F081BDE8CB
:10BA4000F041002107F05FBD1468A17B242906D1D5
:10BA500019463046FDF7FEF984F82C5105E02A29F5
:10BA6000EAD1E37B233B072BF3D80023A37384F8AD
:10BA70004A30E1E7054A1468002CDDD01A46014639
:10BA800023463046BDE8F041184700BFD4180020D7
:10BA900070B54D78A5F10E03DBB2152B04460CD81A
:10BAA000012101FA03F640F25122164207D1026841
:10BAB000152B927B2AD0082B07D0002070BD0246A0
:10BAC0002846BDE8704007F01EBD242A01D02A2A6E
:10BAD000F3D1204606F026FE2368DA7B252AECD037
:10BAE00093F8632022F0010283F86320226892F821
:10BAF000633023F0080382F863301A212046FDF7F3
:10BB0000A9F92368002283F82C21D6E72C2AD4D166
:10BB1000024B1B68002BD0D09847CEE7D8180020E6
:10BB20002DE9F04190F86E7290F86F6204460D4670
:10BB30007FBB90F8141176BB94F8153184F814117A
:10BB400084F81531FF2384F81631154B1B6804F176
:10BB5000A8080BB14046984794F82C31012B01D02E
:10BB60003E4303D0237B43F001032373404606F09A
:10BB700017FD18B1237B43F00203237306212046EF
:10BB8000FEF71EFF002384F82C3135B1A373BDE806
:10BB9000F0813946CFE73346D0E7E573F7E700BFDA
:10BBA000DC18002073B5484D002604462860AE809E
:10BBB0006E73AE73FF2380F84C30B0F8B231002BB7
:10BBC0007CD090F89E30FE2B78D190F82031002B5D
:10BBD00074D0037C063B012B70D990F82131A0F87A
:10BBE000446080F8A0300221012207F0E5FC84F8CF
:10BBF000BA6102212846FDF7FBFEB4F8B611B4F88D
:10BC0000B821B4F8DA30013989B2B1FBF3F3134447
:10BC1000A4F8B831B4F840300B44A4F840302046C2
:10BC200007F017FD10B1636B0B446363B4F8B231D6
:10BC3000012B9CBF0133A4F8B231002609B184F86E
:10BC4000BE61E37B84F8BA61093B012B0FD8E3881E
:10BC5000B4F86C229B1A190409D404F26E2104F181
:10BC6000160006F03BFAE673FF2384F84B30B4F875
:10BC7000B62104F1A801204606F076FAE37B134AC8
:10BC80001349103B0F2B8CBF00230123009328681E
:10BC9000104BFCF78BFB2C68237BDA0703D50A4893
:10BCA0000021FDF7D7F8237B9B0703D504F23F1053
:10BCB000FDF7AEFD0023237302B070BD94F89E1013
:10BCC000FE299AD0004896E7CC1200207DB70200EA
:10BCD000D1B60200D9BC02002DE9F047B24F0E46A2
:10BCE000B9883C688D0556BFB4F840200023013266
:10BCF000804646BFA4F8403084F8BE31A4F8402006
:10BD0000204607F0A6FC38B10B4604F59B7204F1FF
:10BD1000A8012046FEF7DEF8BB8803F4C06323B118
:10BD2000A37C002B45D0032B49D0A27CBB88012AE1
:10BD300003D1180544BF0222A274B8F1000F40F0ED
:10BD40008F8059065DBFB4F8D821013292B24246C5
:10BD5000A4F8D82103F00A020A2A0CD13A7B022A5D
:10BD600009D123F008033046BB80FFF779FD082393
:10BD70003043C6B2BB803046FFF772FD3D6895F890
:10BD80009E303043FE2BC6B23BD1D6BB2B7C063B4C
:10BD9000012B36D995F82031ABB195F82131A5F8B2
:10BDA000446085F8A03001220221284607F004FCF7
:10BDB00027E00121A1742046FEF702FEB5E7022329
:10BDC000A3740121F7E795F80FA0AAF10F0A5FFA13
:10BDD0008AFABAF1100F40F2E9802B68DA0702D52F
:10BDE00032460921E1E7980740F18D8032460C2167
:10BDF000284607F0E1FB95F8533043F0010385F83E
:10BE00005330B4F8B83194F8BB510133A4F8B831C9
:10BE1000002D00F0FB81FCF78DFB10B10023A4F88E
:10BE2000B831A17C012940F22382237C072B40F00A
:10BE30000582B4F84030022B40F21A82B4F8425026
:10BE40000135ADB2E3882B44A4F8B03194F8BC318D
:10BE5000002B00F011820123E2881344A4F8B431CE
:10BE6000BB883D685B065FBFB5F8C431B5F8B62145
:10BE70009B189BB248BF0023A5F8C43195F8203128
:10BE80001BB92B7C063B012B06D8B5F84430B5F81E
:10BE9000B6211344A5F8443095F84A1031B1B5F8ED
:10BEA0004630B5F8B6211344A5F8463095F9502030
:10BEB000002AC1BFB5F84E30B5F8B6011B18A5F879
:10BEC0004E3095F8313063B9B8F1000F40F05E8222
:10BED000BB7B022B40F0168295F8A030062B18BFD2
:10BEE000162395F8302022B92F4885F83130FDF718
:10BEF0003FFE284607F00DFC002384F84C30BDE8D7
:10BF0000F047FCF7FDBF590702D5324613214CE735
:10BF10001A0706D595F8983085F8A03032460721E3
:10BF200043E713F0300F3AD095F82331002B5BD163
:10BF300095F82231D3B1EB7B282B05F1A80005F54C
:10BF4000917105F26E2228D0AB7BA3F1280CDCF1B5
:10BF5000000343EB0C0306F00EFB2B6823F02003D9
:10BF600043F010032B60002385F822312B68DA069A
:10BF70003AD505F1A80006F013FB18B105F23F1001
:10BF8000FDF746FCB5F8FE30A5F8A030B5F8023153
:10BF9000A5F8A2300022152107E70123DBE75B06A5
:10BFA00022D50022242100E7CC120020D7F80090EF
:10BFB00099F80F30172B2DD011D8102B1DD0152B21
:10BFC0001FD0AB7B002B63D1EB7B0F3B102B67D9D2
:10BFD00095F83E30002B63D001221221E5E61F2B9D
:10BFE000EFD1324606210AE03868C37B252B3FD0CB
:10BFF000342BE6D100221121D8E632460B214846E7
:10C00000D4E64846FDF728FE00283FF4FAAE0022A9
:10C010000421F4E799F86832012B07D13246052153
:10C02000484607F0C9FA89F86862EAE699F8683282
:10C03000022BD9B27FF4E5AE99F8523053B1062302
:10C0400089F8A0303246484607F0B6FA002389F84E
:10C050006832EAE73B6840F20632A3F89A2099F882
:10C06000623013F0040F32460CBF0D211121EAE7B4
:10C0700090F82C31022B02D10022172196E690F87D
:10C080002C31012B9DD190F82D31002BF4D098E765
:10C09000082B05D195F8993085F8A03001223EE7AC
:10C0A000BAF1100F7FF6ADAE3D6895F80E90B9F17C
:10C0B000000F7FF4A6AE95F833313BB101220E217B
:10C0C000284607F079FA85F83391AEE795F83231D2
:10C0D00083B195F8539019F0030A0BD101220C217A
:10C0E000284649F0010907F067FA85F8539085F86A
:10C0F00032A19AE795F822313BB395F8233123BB5F
:10C10000EB7B282B05F1A80005F5917105F26E2255
:10C1100019D0AB7BA3F1280CDCF1000343EB0C033B
:10C1200006F029FA002385F822310122142128463D
:10C1300007F042FAB5F8FE30A5F8A030B5F80231A4
:10C14000A5F8A2305DE60123EAE795F82C31012B32
:10C150003FD195F82D31002B3BD1EA7BA2F123038F
:10C16000072B36D995F81401012806D0022804D0EF
:10C170004FF43F710620FBF745F895F8151101299A
:10C1800001D00229F4D1022895F82E310BD0012BD1
:10C1900014BF0023012343B9093A042A7FF631AEC4
:10C1A0000122162101E6022BF2E7022995F82F3130
:10C1B0000DD0012B14BF00230123002BECD07648B7
:10C1C0000021FCF747FE002385F82C3119E6022BED
:10C1D000F0E795F835314BB195F82D3133B9EB7B5C
:10C1E000233B072B02D901222321DEE595F83431C8
:10C1F000012B05D1002385F8343101222521D4E516
:10C2000095F83431022B7FF4FCADF3E7FCF78CF9A1
:10C2100008B1A4F8B851FCF795F900283FF401AE35
:10C2200094F8BE310133DBB2022B84F8BE3182BFF9
:10C230000023A4F8B83184F8BE31F2E594F83E301A
:10C2400013B1A37B0E2B13D1B4F84250B4F8403095
:10C250002046ED1A033D07F0FCF958B1A36B626B61
:10C26000033B9B1A9D42A8BF1D46012D3FF7E9AD38
:10C270000125E7E52B46F5E7012D7FF6ECADE37BE5
:10C2800013B10A2B7FF4E7ADA37B002B7FF4E3AD62
:10C29000237C002B7FF4DFAD02297FF4DCAD94F822
:10C2A000BE31002B7FF4D7ADD4F8BC00B4F8DA90DF
:10C2B00004F014FE00283FF4CEAD94F89E30FE2B1F
:10C2C0007FF4C9ADB4F8B231012B7FF6C4ADB4F838
:10C2D000B821B4F8CC309A42BFF4BDAD9B1A9BB2E2
:10C2E000013DADB2B5FBF9F59D4228BF1D4619FBD6
:10C2F00005F3003D03F1010318BF01259BB284F84B
:10C30000BA51A9E5012B08D16B7C002B7FF4E9AD74
:10C3100000212846FEF754FBEEE55EB1F00633D46B
:10C32000310733D4B20633D4B30733D14FF431617C
:10C33000312020E739B1B5F84610B5F848309942B8
:10C3400001D32223CDE5002A05DDB5F84E20B5F84E
:10C3500048309A42F5D2B5F84420B5F842309A42B6
:10C3600009D2AA7CB5F8403052B1B5F842209A42C1
:10C37000CED80823B5E595F82031002BE1D1F0E7C0
:10C38000052BC5D93E23ACE51E23AAE53D23A8E530
:10C390002323A6E52A23A4E5CC12002013B5D0F868
:10C3A0007432D0F8C42001909342044605D1D0F8ED
:10C3B0007812D0F8CC20914216D0B4F8AA20A4F874
:10C3C000872140F2E242B3FBF2F3A4F88931B4F8DA
:10C3D0007832A4F88B31B4F87A320A49A4F88D3156
:10C3E00004F27D1006F04EF8B4F87A22D4F87412F4
:10C3F00001A8FCF7B3FF0023E3730323A37402B087
:10C4000010BD00BF8128030008B5FDF7C5FA024B37
:10C41000024A1A6008BD00BFD0180020B5B702005C
:10C42000074B93F900301844142804DC10F17F0FF7
:10C4300003DB40B27047142070476FF07E007047F6
:10C44000DD12002007B57F230DF107008DF80730BE
:10C4500000F0A6FD03469DF9070053B1094B5B7838
:10C460005B4240FA83F0142806DC10F17F0F05DBF5
:10C4700040B203B05DF804FB1420FAE76FF07E00D1
:10C48000F7E700BFDD120020024B00221A705A703D
:10C49000704700BFDD120020064BD3F8000138B111
:10C4A000D3F8040120B1D3F80801B0FA80F04009B4
:10C4B000704700BF00F00040034B00221A705A7012
:10C4C00010229A70704700BFDF12002070B5064638
:10C4D000022014460D4600F0A3F8064B01221A7004
:10C4E000054B033CC3F81045C3F80865C3F8045571
:10C4F00070BD00BFDF12002000F0004008B5022030
:10C5000000F08EF8084B01221A70084B0022C3F885
:10C510000021C3F80421C3F8082103F580334FF448
:10C520000002C3F8042508BDDF12002000F000401F
:10C530000E4A08B5137883B10D4B4FF40001C3F8D0
:10C540000815FFF7A9FF68B101235370094BD3F811
:10C550000034DBB2937000231370BDE80840002064
:10C5600000F05EB850701023F4E700BFDF12002027
:10C5700000F0014000F00040094B1A7862B1094B0D
:10C58000D3F8002152B1D3F8040140B1D3F8080127
:10C59000B0FA80F040097047587870470220704721
:10C5A000DF12002000F0004008B5074B1A783AB1BE
:10C5B000FFF772FF30B1054BD3F80004C0B208BDDD
:10C5C0009878FCE71020FAE7DF12002000F0004026
:10C5D00008B50A4BD3F80025032A04BF01229A604C
:10C5E0000022C3F80025C3F8002500F0F9FE044B33
:10C5F0004FF40002C3F8082508BD00BF00F000405A
:10C6000000F00140054B4FF40042C3F88020BFF317
:10C610004F8FBFF36F8FFFF7DBBF00BF00E100E07C
:10C6200010B50446FFF7D4FF012C06D0022C0CD025
:10C6300054B18C213D20FAF7E5FD0B4B0222C3F8E3
:10C6400000250A4AC3F8142510BD074B0322C3F87E
:10C650000025064AC3F8142503F580334FF4000281
:10C66000C3F80425F0E700BF00F00040E21200200C
:10C67000044B1868062818BFB0F1FF3F0CBF01201B
:10C680000020704728160020044B1868062818BFA1
:10C69000B0F1FF3F0CBF012000207047281600209A
:10C6A00008B5FFF7E5FF38B1044B1868063810F1FC
:10C6B000080F94BF0020012008BD00BF2C160020E9
:10C6C00008B5FFF7E1FF38B1044B1868063810F1E0
:10C6D000080F94BF0020012008BD00BF2C160020C9
:10C6E00008B5FFF7C5FF38B1044B1868063810F1DC
:10C6F000080F8CBF0020012008BD00BF2C160020B1
:10C70000064B0022C3F80021C3F80C21C3F8102106
:10C71000C3F80421C3F80821704700BF001000408F
:10C7200070B5134D6E7F0346084626B940F6C10129
:10C730003E20FAF767FD63B9012EAC69297F05D168
:10C7400000F03CFD20442B69C01A70BD07F098F83A
:10C75000F8E7012B09D1012EAC69297F02D100F045
:10C760001DFDEFE707F097F8ECE70020EBE700BFCF
:10C77000F01300200B4B93F82B0088B193F82A306C
:10C780007BB1094BD3F8002242F00102C3F800222A
:10C79000D3F8500500F0F600023818BF01207047AA
:10C7A00001207047F01300200010004008B5094B2D
:10C7B00001281871084B06D0022808D040F64551D0
:10C7C0003E20FAF71FFD0322C3F8102508BD0422FE
:10C7D000FAE700BFF01300200010004008B570B960
:10C7E000104B2831D96018460F4900F023FF013063
:10C7F000012816D940F2C2613E20FAF703FD012854
:10C800000CD1084B2931D9601846074900F018FFB0
:10C810000130012805D940F2CC61EDE74FF4DA612F
:10C82000EAE708BD28000020E04D050008B50C4BE4
:10C830005B78012B09D100F009FF013001280ED9E6
:10C8400040F611113E20FAF7DDFC022B07D100F073
:10C8500003FF0130012802D940F61711F2E708BDA5
:10C86000F0130020094B0A4A1B89B3F5166F3ABF33
:10C87000A3F6381343F48073A3F5166300F07F002A
:10C88000C2F80835C2F85405704700BFF013002005
:10C890000010004010B50C46FFF788FF2046FFF758
:10C8A000E1FF0F4A0023C2F81C31D2F8003243F4F2
:10C8B0008873C2F8003240F20313C2F8343540F2F4
:10C8C0005B63C2F83835FFF7EBFE40B9FFF708FFAE
:10C8D00028B9D2F8683543F4C023C2F8683510BDD2
:10C8E0000010004073B50C46154D0646FFF75EFF7D
:10C8F0002046FFF7B7FF214695F9052001AB3046EA
:10C9000000F034FE9DF8050000F0ACFE20B140F2CE
:10C91000E3513E20FAF776FC9DF90400294600F029
:10C9200035FC084B40F20312C3F83425284640F288
:10C930005B62C3F8382502B0BDE8704000F0FABD74
:10C94000F0130020001000402DE9F04106460C468F
:10C95000174601F083FB0028FBD02C4B2C4D4FF4E5
:10C960000022C3F808259EBB01236B7095F82A307E
:10C970001BB9A9793846FFF7B5FF264B33F81730B6
:10C980004FF47A7203F5FA73B3FBF2F3224AE41A16
:10C990001E4BC3F8AC252B691C4A204FE1184FF001
:10C9A00001081F4B85F82A80C7F84015C2F8A83542
:10C9B0002B6A43F400232B624FF40023C2F80435A2
:10C9C000FFF7D8FE0446B8B900242046BDE8F08140
:10C9D000012E0CD102236B7095F82A301BB9A9796E
:10C9E0003846FFF757FF094B0E4A293CD1E740F67E
:10C9F00034013E20FAF706FCC7F84C80D7F84C35D6
:10CA00008B42E1DA3046FFF7E9FEDEE700F0014055
:10CA1000F0130020584E0500001000400080004038
:10CA2000408100400410004008B540221048002119
:10CA300003F046FD0F4B1B6823F004020A2A05D0C1
:10CA4000102B03D0082B0ED1402200E024220A48EC
:10CA5000FF2103F035FD4FF080430022C3F8082E7C
:10CA6000C3F8102E08BD0D2BEED03822EFE700BF23
:10CA7000F013002028160020000E0040024B034453
:10CA8000187E00F516607047E04D0500024B98696E
:10CA90001B69C01A704700BFF01300200A4B1A7FB1
:10CAA000D3E90430C01A094B03EB82031B6CC01A94
:10CAB000074B53F822304FF47A7203F2F313B3FBAF
:10CAC000F2F3C01A704700BFF0130020E04D0500DC
:10CAD0004C4E0500FF2808B504D940F2CB213E207A
